:1000000000308A001928000010308400000803190D
:10001000182801308D008C018C0B0C288D0B0B28BF
:100020004A308C008C0B122800000000800B09283D
:10003000003484011F30830583160108C039083855
:100040008100FF3065000030660086008312860163
:10005000831605140030831205180130013C031D7E
:100060004B2800308316860012308312860004303D
:100070008F00FA30900004208F0B3928003083164F
:1000800086008312860104308F00FA30900004202D
:100090008F0B4528352900308316860021308312C6
:1000A000860014308F00FA30900004208F0B532804
:1000B00000308316860001308312860002308F00E4
:1000C000FA30900004208F0B6028003083168600E1
:1000D00021308312860002308F00FA309000042015
:1000E0008F0B6D2800308316860001308312860046
:1000F00002308F00FA30900004208F0B7A280030F5
:100100008316860021308312860002308F00FA3079
:10011000900004208F0B8728003083168600013062
:100120008312860002308F00FA30900004208F0B7B
:100130009428003083168600213083128600023016
:100140008F00FA30900004208F0BA1280030831616
:10015000860011308312860004308F00FA30900040
:1001600004208F0BAE280030831686000B308312DC
:10017000860004308F00FA30900004208F0BBB28DB
:100180000030831686000C308312860014308F00F6
:10019000FA30900004208F0BC828003083168600A8
:1001A00008308312860002308F00FA30900004205D
:1001B0008F0BD5280030831686000C308312860002
:1001C00002308F00FA30900004208F0BE2280030BC
:1001D0008316860008308312860002308F00FA30C2
:1001E000900004208F0BEF280030831686000C301F
:1001F0008312860002308F00FA30900004208F0BAB
:10020000FC280030831686000830831286000230F6
:100210008F00FA30900004208F0B092900308316DC
:1002200086000C308312860004308F00FA30900074
:1002300004208F0B16290030831686000A308312A3
:10024000860004308F00FA30900004208F0B2329A1
:1002500000308316860019308312860004308F0028
:0E026000FA30900004208F0B3029282863000C
:02400E00F93F78
:00000001FF
;PIC16F84A
